:1000000000308A00E02900000A108A100A118207D5
:1000100028340C34013406340A108A100A1182077D
:10002000563461346C347534653420346F3466343E
:10003000203441344434433400340A108A100A1105
:100040008207563461346C3475346534203441345D
:10005000443443343A342534303434346C347534D5
:1000600000342D3084008313000803194528013023
:10007000F800F701F70B3A28F80B39284A30F70057
:10008000F70B40284328800B3728003434184A28BF
:1000900008124B280816831608128312B418522827
:1000A00088125328881683168812831234195A2806
:1000B00008135B280817831608138312B4196228E3
:1000C0008813632888178316881300008312081585
:1000D000831608116B2883120811831608118312E6
:1000E0000034B5018316081600308312081A013057
:1000F000B5048316881600308312881A0130F70081
:100100000310F70D7708B504831608170030831223
:10011000081B0130F700F70DF70DFC30F7057708E5
:10012000B5048316881700308312881B0130F7004E
:10013000F70DF70DF70DF830F7057708B50435081A
:10014000F8000034081083160810081688160817DF
:1001500088178312881483168810000083120815EC
:10016000831608110000831271207808B40008116A
:100170008316081100008312081583160811000069
:10018000831271207808B300081183160811081231
:100190008812081388138312340EF700F030F70525
:1001A00077083304F8007808B300B31FD928831602
:1001B000A528B108031DDE280810DF2808148316BF
:1001C0000810000083128810831688100000831224
:1001D0000811831608118312320EB3000F30B305D5
:1001E0003308B400462032080F39B300B40046206B
:1001F0000034831608128812081388130811081097
:100200008810831208108316081083128810831632
:10021000881083120811831608110F308312AD0065
:1002200031200130A2002208033C031C1F290330A7
:10023000B40046200530AD003120A20A1329023057
:10024000B4004620A2012208033C031C30292208E6
:100250000420A300B1012308B200A220A20A23298E
:100260008A110A12002A2E0B3729AF014B292E08BA
:10027000023C031D3E294030AF004B292E08033CB1
:10028000031D45291430AF004B292E08043C031DE3
:100290004B295430AF0001302D02AF072F088038B2
:1002A000B000B1013008B200A22000342C080C3A92
:1002B00003196129063A03196929023A03196F29BA
:1002C0007429B1010130B200A2200230AD0031200A
:1002D0007A290130AD000230AE0033217A29B10114
:1002E0001030B200A2207A290130B1002C08B200EF
:1002F000A2207A290034AB010408AA002B10831B2A
:100300002B14240EF038A600A607E23EA700323ECA
:10031000A90024080F39A707A707A907E93EA800E5
:10032000A807A807230E0F39A807A907A80DA90D2C
:10033000A909A90D23080F39A907A60D0730A500A3
:100340000A30A907A803031CA129A807A703031CB7
:10035000A529A707A603031CA929A607A503031C13
:10036000AD2925308400831307302A052A1384071A
:100370002930040203192A170008F700031DC829B1
:100380002A1BC8292A1ADA29AA19C8292030CB29F8
:10039000AA152A123030F707A4010408A30024107C
:1003A000831B24147708AC00562123088400831390
:1003B00024188317840A2A1FB8298A110A124F2A7F
:1003C000840183131F308305831603170908C0397E
:1003D000890003131F129F12003003178800831235
:1003E0008701880189010313A001A1010F30831641
:1003F0008500003088000914891409158312F92832
:100400000C30AC0056210130AD00AE003321A2010A
:1004100022080C20A20AF700AC0056210C30220260
:10042000031D082A1F179F1783169F1783121F1477
:10043000831603170908C0391F38890003131F12D8
:100440009F12FF30031788000030F8008312031357
:100450001F08C33978049F000130AD0031209F147C
:100460009F18302A83161E088312A0001E08A100C0
:100470000130AD000230AE003321A20122081D2060
:10048000A20AF700AC0056210A302202031D3E2AC0
:10049000093084002108A4002008A3007B29023031
:1004A000A200FA30AD003120A20B512A83160317A7
:0404B000242A630097
:04400E00F22FFF3F4F
:00000001FF
;PIC16F887
