:1000000000308A004D28000022308400831300084D
:10001000031918280530F800F701F70B0D28F80B25
:100020000C282E30F700F70B13281628800B0A280F
:1000300000343230A2000420831685158312851DFA
:100040001C2883160610831206148316861083124A
:1000500086100230A100FA30A2000420A10B2B2848
:100060008A110A1279283230A2000420831605165C
:100070008312051E36288316061083120610831677
:100080008610831286140230A100FA30A2000420E8
:10009000A10B45288A110A127F28840183131F307F
:1000A0008305831603170908C039890003131F123B
:1000B0009F1200300317880083128701880189018D
:1000C0000030831603138600FF308500003088005F
:1000D000860183128601831606108312061083168A
:1000E0008610831286108316851583128519792848
:1000F0001928831605168312051A7F2833287328BA
:0201000063009A
:04400E00F22FFF3F4F
:00000001FF
;PIC16F887
