:1000000000308A0025280000851D0428061486106B
:100010000230A100FA30A2002230840083130008CD
:10002000031920280530F800F701F70B1528F80B05
:1000300014282E30F700F70B1B281E28800B1228DF
:10004000A10B0A288A110A124F28840183131F303A
:1000500083058316031787110C3003139900E230D0
:100060009800D03083129800831603170908C0390E
:10007000890003131F129F12003003178800831298
:100080008701880189010030831603138600FF3041
:1000900085000030880083128601851D04284D28C4
:0200A0006300FB
:04400E00F22FFF3F4F
:00000001FF
;PIC16F887
