:1000000000308A00182800002C3084008313000878
:10001000031917280230F800F701F70B0D28F80B29
:100020000C289730F700F70B1328800B0A280034B0
:10003000840183131F308305831603170908C03911
:10004000890003131F129F120030031788008312C8
:100050008701880189013F300313A0000630A10009
:100060005B30A2004F30A3006630A4006D30A500C5
:100070007D30A6000730A7007F30A8006F30A900B0
:1000800000308316860088008500850108308312C1
:1000900085008316880183128800AA012A08093C7A
:1000A000031C792820302A07840083130008FF3AB4
:1000B000AC008316860183122C088600FA30AC004F
:1000C0000420AB012B08093C031C772820302B07A8
:1000D000840083130008FF3AAC0083168801831262
:1000E0002C088800FA30AC000420AB0A6228AA0A67
:0600F0004E284D286300BC
:04400E00F22CFF3F52
:00000001FF
;PIC16F887
