:1000000000308A006D2900000A108A100A11820748
:1000100028340C34013406340A108A100A1182077D
:100020004C344534203454344834493420344E342C
:10003000483455344E34473400340A108A100A11BB
:1000400082070C3400342330840083130008031922
:1000500037280130F800F701F70B2C28F80B2B2874
:100060004A30F700F70B32283528800B2928003456
:100070002A183C2808123D280816831608128312F5
:10008000AA184428881245288816831688128312D5
:100090002A194C2808134D280817831608138312B1
:1000A000AA19542888135528881783168813000026
:1000B00083120815831608115D2883120811831610
:1000C000081183120034AB01831608160030831226
:1000D000081A0130AB048316881600308312881A80
:1000E0000130F7000310F70D7708AB0483160817EB
:1000F00000308312081B0130F700F70DF70DFC30BC
:10010000F7057708AB048316881700308312881B25
:100110000130F700F70DF70DF70DF830F705770808
:10012000AB042B08F80000340810831608100816DA
:100130008816081788178312881483168810000001
:1001400083120815831608110000831263207808B3
:10015000AA000811831608110000831208158316DF
:1001600008110000831263207808A9000811831683
:100170000811081288120813881383122A0EF70038
:10018000F030F70577082904F8007808A900A91FBE
:10019000CB2883169728A708031DD0280810D1283C
:1001A0000814831608100000831288108316881024
:1001B000000083120811831608118312280EA9006B
:1001C0000F30A9052908AA00382028080F39A900EE
:1001D000AA003820003483160812881208138813E6
:1001E0000811081088108312081083160810831253
:1001F00088108316881083120811831608110F3097
:100200008312A30023200130A1002108033C031C1A
:1002100011290330AA0038200530A3002320A10AA9
:1002200005290230AA003820A1012108033C031C43
:10023000222921080420A200A7012208A800942056
:10024000A10A15298A110A128D29240B2929A50131
:100250003D292408023C031D30294030A5003D29DA
:100260002408033C031D37291430A5003D29240828
:10027000043C031D3D295430A50001302302A5078D
:1002800025088038A600A7012608A800942000347D
:1002900022080C3A03195329063A03195B29023A3A
:1002A000031961296629A7010130A80094200230B2
:1002B000A30023206C290130A3000230A4002521D3
:1002C0006C29A7011030A80094206C290130A700E8
:1002D0002208A80094206C290034840183131F3065
:1002E0008305831603170908C039890003131F12F9
:1002F0009F1200300317880083128701880189014B
:100300000313A00111308316850000308800860099
:1003100014308312A3002320EB281430A3002320E1
:10032000A301A40125211030A000A0080319BA29B7
:100330002008A3000130A4002521A10121080C20E0
:1003400000380319A729A10AA20048219E290230DA
:10035000A100FA30A3002320A10BA929A1012108A3
:100360001D2000380319B829A10AA2004821AF298D
:08037000A00395299329630005
:04400E00F22FFF3F4F
:00000001FF
;PIC16F887
